:100000000C946C000C9494000C9494000C94940048
:100010000C9494000C9494000C9494000C94940010
:100020000C9494000C9494000C9494000C94940000
:100030000C9494000C9494000C9494000C949400F0
:100040000C9490040C9494000C945E040C9438046A
:100050000C9494000C9494000C9494000C949400D0
:100060000C9494000C9494008F029602A202B302A6
:10007000B502BC02C802D902EF02F1020000000082
:10008000240027002A0000000000250028002B0083
:1000900000000000230026002900040404040404D6
:1000A0000404020202020202030303030303010227
:1000B00004081020408001020408102001020408F6
:1000C00010200000000800020100000304070000E7
:1000D000000000000000DA0411241FBECFEFD8E0BA
:1000E000DEBFCDBF11E0A0E0B1E0ECEBFDE002C06F
:1000F00005900D92AA33B107D9F721E0AAE3B1E048
:1001000001C01D92AA3FB207E1F710E0CCE6D0E0B3
:1001100004C02197FE010E949B06CB36D107C9F788
:100120000E9441050C94DC060C940000CF92DF92F3
:10013000EF92FF920F931F93CF93DF936C017A019D
:100140008B01C0E0D0E0CE15DF0589F0D8016D91BC
:100150008D01D601ED91FC910190F081E02DC60159
:100160000995892B11F47E0102C02196ECCFC701BD
:10017000DF91CF911F910F91FF90EF90DF90CF9083
:100180000895FC01918D828D981761F0828DDF01B9
:10019000A80FB11D5D968C91928D9F5F9F73928F7A
:1001A00090E008958FEF9FEF0895FC01918D828D6F
:1001B000981731F0828DE80FF11D858D90E008953C
:1001C0008FEF9FEF0895FC01918D228D892F90E094
:1001D000805C9F4F821B91098F739927089583E458
:1001E00091E00E94E30021E0892B09F420E0822FB6
:1001F0000895FC01848DDF01A80FB11DA35ABF4FE4
:100200002C91848D90E001968F739927848FA68915
:10021000B7892C93A089B1898C9180648C93938D3C
:10022000848D981306C00288F389E02D80818F7D2C
:1002300080830895EF92FF920F931F93CF93DF93E4
:10024000EC0181E0888F9B8D8C8D981305C0E88927
:10025000F989808185FD24C0F62E0B8D10E00F5F9B
:100260001F4F0F731127E02E8C8DE8120CC00FB6B4
:1002700007FCFACFE889F989808185FFF5CFCE01A7
:100280000E94F900F1CF8B8DFE01E80FF11DE35ABA
:10029000FF4FF0820B8FEA89FB898081806207C063
:1002A000EE89FF896083E889F98980818064808391
:1002B00081E090E0DF91CF911F910F91FF90EF903F
:1002C0000895CF93DF93EC01888D8823C9F0EA89E4
:1002D000FB89808185FD05C0A889B9898C9186FD3F
:1002E0000FC00FB607FCF5CF808185FFF2CFA8893C
:1002F000B9898C9185FFEDCFCE010E94F900E7CF3F
:10030000DF91CF91089580E090E0892B29F00E9441
:10031000EF0081110C9400000895833081F028F4DF
:10032000813099F08230A1F008958730A9F08830AB
:10033000B9F08430D1F4809180008F7D03C080912A
:1003400080008F7780938000089584B58F7702C0F6
:1003500084B58F7D84BD08958091B0008F7703C0F0
:100360008091B0008F7D8093B0000895CF93DF938C
:10037000282F30E0F901EE53FF4F8491F901E25547
:10038000FF4FD491F901E656FF4FC491CC2391F071
:1003900081110E948D01EC2FF0E0EE0FFF1FE0575E
:1003A000FF4FA591B491EC91ED2381E090E021F411
:1003B00080E002C080E090E0DF91CF9108951F932C
:1003C000CF93DF93282F30E0F901EE53FF4F849154
:1003D000F901E255FF4FD491F901E656FF4FC49160
:1003E000CC23C9F0162F81110E948D01EC2FF0E073
:1003F000EE0FFF1FEA57FF4FA591B4918FB7F89406
:10040000111105C09C91ED2FE095E92302C0EC91FC
:10041000ED2BEC938FBFDF91CF911F910895CF9378
:10042000DF93EC018091E8019091E901029709F5D1
:10043000C130D10569F024F42097D9F460E009C0F7
:10044000C230D10561F0C330D10599F460E008C035
:1004500061E08091EC010E94DF0161E006C061E093
:100460008091EC010E94DF0160E08091EE010E942A
:10047000DF018091E8019091E901049709F03FC004
:10048000C130D105B9F04CF42097C9F561E08091F5
:10049000EC010E94DF0160E013C0C230D105D9F049
:1004A000C330D10561F561E08091EC010E94DF016C
:1004B00060E017C060E08091EC010E94DF0161E024
:1004C0008091EE010E94DF0161E08091F0010E94C5
:1004D000DF0160E010C060E08091EC010E94DF016C
:1004E00061E08091EE010E94DF0160E08091F00107
:1004F0000E94DF0161E08091F2010E94DF018091A2
:10050000E8019091E901059709F086C0CA30D1054C
:1005100008F082C0FE01EC5CFF4F0C949B0660E08B
:100520008091EC010E94DF0161E061C060E0809198
:10053000EC010E94DF0161E08091EE010E94DF0189
:1005400060E05AC060E08091EC010E94DF0161E050
:100550008091EE010E94DF0160E08091F0010E9435
:10056000DF0161E04EC060E001C061E08091EC011C
:100570000E94DF0161E006C061E08091EC010E9411
:10058000DF0160E08091EE010E94DF0160E00BC0BE
:1005900061E08091EC010E94DF0160E08091EE015A
:1005A0000E94DF0161E08091F0010E94DF0161E0C3
:1005B00010C061E08091EC010E94DF0160E0809159
:1005C000EE010E94DF0161E08091F0010E94DF01F5
:1005D00060E08091F2010E94DF0160E017C061E0FD
:1005E00001C060E08091EC010E94DF0160E0809139
:1005F000EE010E94DF0161E08091F0010E94DF01C5
:1006000060E08091F2010E94DF0161E08091F401DD
:10061000DF91CF910C94DF01DF91CF910895CF93BB
:10062000DF9390E0FC01E255FF4F2491FC01E65678
:10063000FF4F8491882361F190E0880F991FFC019E
:10064000E458FF4FC591D491FC01EA57FF4FA591A3
:10065000B491611109C09FB7F894888120958223D5
:100660008883EC912E230BC0623061F49FB7F8941D
:100670003881822F809583238883EC912E2B2C93B5
:100680009FBF06C08FB7F894E8812E2B28838FBFB9
:10069000DF91CF9108953FB7F89480913F019091F9
:1006A0004001A0914101B091420126B5A89B05C02F
:1006B0002F3F19F00196A11DB11D3FBFBA2FA92FE1
:1006C000982F8827820F911DA11DB11DBC01CD015E
:1006D00042E0660F771F881F991F4A95D1F708954A
:1006E0004F925F926F927F928F929F92AF92BF9242
:1006F000EF92FF920F931F93CF93DF93EC0197FF3D
:1007000004C0CC27DD27C81BD90B181619063CF4EA
:1007100081E090E09093E1018093E00106C0892B95
:1007200021F01092E1011092E00104E010E08AE073
:10073000E82EF12C209709F468C00E944B038090AA
:10074000F6019090F701A090F801B090F9012B010B
:100750003C01481859086A087B088090E201909093
:10076000E301A090E401B090E501481459046A0443
:100770007B0400F36093F6017093F7018093F80116
:100780009093F9012091E0013091E1018091EA011B
:100790009091EB012130310589F401969093EB01A2
:1007A0008093EA012091E6013091E70182179307D7
:1007B000C1F41092EB011092EA0113C0892B41F4AD
:1007C0008091E6019091E7019093EB018093EA011B
:1007D0008091EA019091EB0101979093EB01809356
:1007E000EA0121972091E8013091E9018091EA0125
:1007F0009091EB012530310511F4B70101C0B8012A
:100800000E9468060E940F0295CFDF91CF911F9141
:100810000F91FF90EF90BF90AF909F908F907F903F
:100820006F905F904F900895CF93DF93009779F08A
:10083000FC0101900020E9F73197AF01481B590BEB
:10084000BC0183E491E00E949600EC0102C0C0E08C
:10085000D0E042E050E068E171E083E491E00E9482
:1008600096008C0F9D1FDF91CF9108950E94D706AF
:100870001F920F920FB60F9211242F933F934F9315
:100880005F936F937F938F939F93AF93BF93EF93F8
:10089000FF9383E491E00E94F900FF91EF91BF91F3
:1008A000AF919F918F917F916F915F914F913F9108
:1008B0002F910F900FBE0F901F9018951F920F92BF
:1008C0000FB60F9211242F938F939F93EF93FF9363
:1008D000E0915301F09154018081E0915901F09130
:1008E0005A0182FD12C0908180915C018F5F8F73ED
:1008F00020915D01821751F0E0915C01F0E0ED5B29
:10090000FE4F958F80935C0101C08081FF91EF9134
:100910009F918F912F910F900FBE0F901F90189560
:100920001F920F920FB60F9211242F933F938F9324
:100930009F93AF93BF9380913B0190913C01A09115
:100940003D01B0913E0130913A0123E0230F2D3754
:1009500020F40196A11DB11D05C026E8230F0296C3
:10096000A11DB11D20933A0180933B0190933C015E
:10097000A0933D01B0933E0180913F0190914001D1
:10098000A0914101B09142010196A11DB11D80933A
:100990003F0190934001A0934101B0934201BF9168
:1009A000AF919F918F913F912F910F900FBE0F901C
:1009B0001F9018950F931F93CF93DF93E3E4F1E01B
:1009C0001382128288EE93E0A0E0B0E084839583E6
:1009D000A683B7838CE091E09183808385EC90E0DF
:1009E0009587848784EC90E09787868780EC90E0F9
:1009F000918B808B81EC90E0938B828B82EC90E0EA
:100A0000958B848B86EC90E0978B868B118E128E63
:100A1000138E148EC0EED1E01B861A8619821882BE
:100A20001E8A1F8A188E198E84E290E09F838E831F
:100A300004E010E01D870C8785E090E09F878E879B
:100A400086E090E0998B888B87E090E09B8B8A8B87
:100A500061E084E00E940F0361E08E850E940F0335
:100A600061E088890E940F0361E08A890E940F0378
:100A70001D8A1C8A19870887DF91CF911F910F91DA
:100A80000895789484B5826084BD84B5816084BD06
:100A900085B5826085BD85B5816085BD80916E001C
:100AA000816080936E00109281008091810082604D
:100AB000809381008091810081608093810080918A
:100AC00080008160809380008091B1008460809379
:100AD000B1008091B00081608093B00080917A0075
:100AE000846080937A0080917A00826080937A009B
:100AF00080917A00816080937A0080917A0080688A
:100B000080937A001092C1002091E6013091E701B4
:100B1000032E000C440B550B60E077E883E993E06B
:100B20000E947C06CA01B90126E030E040E050E0B6
:100B30000E947C062093E2013093E3014093E4019C
:100B40005093E50160E088E00E940F0360E089E0D7
:100B50000E940F0360E08AE00E940F03E0915301BE
:100B6000F091540182E08083E0914F01F0915001B7
:100B70001082E0915101F09152018FEC808310922C
:100B80005B01E0915701F091580186E08083E0918C
:100B90005501F0915601808180618083E09155017B
:100BA000F0915601808188608083E0915501F09139
:100BB0005601808180688083E0915501F091560153
:100BC00080818F7D80838BE191E00E9414040E94DC
:100BD0004B034B015C0184EFC82EDD24D394E12C40
:100BE000F12C0E944B03DC01CB0188199909AA0959
:100BF000BB09883E9340A105B10558F021E0C21A17
:100C0000D108E108F10888EE880E83E0981EA11C47
:100C1000B11CC114D104E104F10419F7C1E0D0E022
:100C20000FEF1FEF88E00E94B6017C01909307014F
:100C30008093060189E00E94B6019093050180939C
:100C400004018AE00E94B60190930301809302019F
:100C5000EF2841F4D0930101C09300018DE291E0AF
:100C60000E9414048091040190910501892B41F4A4
:100C7000109301010093000189E291E00E941404A5
:100C80008091020190910301892B41F4109201019E
:100C90001092000185E391E00E941404809100010C
:100CA000909101018130910519F481E090E00BC031
:100CB0008F3F2FEF920719F48FEF9FEF04C0892B1E
:100CC00021F480E090E00E9470030E948301AACF8B
:100CD00097FB072E16F4009407D077FD09D00E94E9
:100CE000A10607FC05D03EF4909581959F4F08958D
:100CF000709561957F4F0895052E97FB1EF4009423
:100D00000E94930657FD07D00E94B50607FC03D04A
:100D10004EF40C94930650954095309521953F4F95
:100D20004F4F5F4F089590958095709561957F4FD7
:100D30008F4F9F4F0895EE0FFF1F0590F491E02D08
:100D40000994AA1BBB1B51E107C0AA1FBB1FA61712
:100D5000B70710F0A61BB70B881F991F5A95A9F764
:100D600080959095BC01CD010895A1E21A2EAA1B91
:100D7000BB1BFD010DC0AA1FBB1FEE1FFF1FA2174B
:100D8000B307E407F50720F0A21BB30BE40BF50B48
:100D9000661F771F881F991F1A9469F760957095D1
:100DA000809590959B01AC01BD01CF01089581E034
:0C0DB00090E0F8940C94DC06F894FFCF5F
:100DBC000100010001000100000000001A01960072
:100DCC00E300C100D50061010D0A00537465707019
:100DDC006572204D6F746F7200416E7469434C4B99
:0A0DEC00576973650053544F50001F
:00000001FF
