:100000000C9462000C948A000C948A000C948A0070
:100010000C948A000C948A000C948A000C948A0038
:100020000C948A000C948A000C948A000C94CC01E5
:100030000C948A000C948A000C948A000C948A0018
:100040000C9482010C948A000C948A000C948A000F
:100050000C948A000C948A000C948A000C948A00F8
:100060000C948A000C948A000000000024002700F1
:100070002A0000000000250028002B0000000000DE
:1000800023002600290004040404040404040202DA
:100090000202020203030303030301020408102007
:1000A0004080010204081020010204081020000012
:1000B0000008000201000003040700000000000027
:1000C0000000610311241FBECFEFD8E0DEBFCDBF1B
:1000D00011E0A0E0B1E0E2E2F7E002C005900D928D
:1000E000A230B107D9F721E0A2E0B1E001C01D9232
:1000F000A433B207E1F710E0C2E6D0E004C02197D4
:10010000FE010E948903C136D107C9F70E948D0202
:100110000C948F030C940000BC0190910D019C3055
:1001200098F580910E0128E830E0281B310987FD01
:100130003395220F331F220F331F621773078CF082
:1001400080910F0148E552E0481B510987FD539506
:10015000440F551F440F551F9B01461757070CF4BA
:100160009A0122503109220F331F4FB7F894892F7B
:1001700090E0FC01EE0FFF1F8E0F9F1FFC01E05F60
:10018000FE4F328321834FBF0895833081F028F4DE
:10019000813099F08230A1F008958730A9F088303D
:1001A000B9F08430D1F4809180008F7D03C08091BC
:1001B00080008F7780938000089584B58F7702C088
:1001C00084B58F7D84BD08958091B0008F7703C082
:1001D0008091B0008F7D8093B0000895CF93DF931E
:1001E000282F30E0F901E255FF4F8491F901E656DE
:1001F000FF4FD491F901EA57FF4FC491CC2391F0FE
:1002000081110E94C500EC2FF0E0EE0FFF1FE458B3
:10021000FF4FA591B491EC91ED2381E090E021F4A2
:1002200080E002C080E090E0DF91CF9108951F93BD
:10023000CF93DF93282F30E0F901E255FF4F8491EF
:10024000F901E656FF4FD491F901EA57FF4FC491E7
:10025000CC23C1F0162F81110E94C500EC2FF0E0D5
:10026000EE0FFF1FEE58FF4FA591B4919FB7F89482
:10027000111104C08C91D095D82302C0EC91DE2BD3
:10028000DC939FBFDF91CF911F910895CF93DF93B0
:1002900090E0FC01E656FF4F2491FC01EA57FF4F26
:1002A0008491882361F190E0880F991FFC01E8593F
:1002B000FF4FC591D491FC01EE58FF4FA591B49129
:1002C000611109C09FB7F8948881209582238883A3
:1002D000EC912E230BC0623061F49FB7F8948881B3
:1002E000322F309583238883EC912E2B2C939FBF44
:1002F00006C08FB7F894E8812E2B28838FBFDF913B
:10030000CF9108951F920F920FB60F9211242F9341
:100310003F938F939F93AF93BF93809109019091E7
:100320000A01A0910B01B0910C013091080123E06A
:10033000230F2D3720F40196A11DB11D05C026E81D
:10034000230F0296A11DB11D20930801809309017E
:1003500090930A01A0930B01B0930C0180910401CA
:1003600090910501A0910601B09107010196A11D90
:10037000B11D8093040190930501A0930601B093F1
:100380000701BF91AF919F918F913F912F910F9056
:100390000FBE0F901F9018951F920F920FB60F92DD
:1003A00011242F933F934F935F936F937F938F937A
:1003B0009F93AF93BF93EF93FF938091030187FFC8
:1003C00005C010928500109284001BC0209103018B
:1003D000022E000C330B8091020190E028173907A0
:1003E00084F480910301082E000C990BFC01EE0FA0
:1003F000FF1F8E0F9F1FFC01E05FFE4F808186FD77
:1004000015C0809103018F5F809303012091030148
:10041000022E000C330B8091020190E0281739075F
:10042000C4F4809103018C3064F113C08091030106
:10043000082E000C990BFC01EE0FFF1F8E0F9F1F63
:10044000FC01E05FFE4F808160E08F730E94170126
:10045000D8CF8091840090918500049680349C4987
:1004600018F480E49CE905C0809184009091850097
:10047000049690938900809388008FEF8093030106
:100480003BC0209184003091850080910301082EAB
:10049000000C990BFC01EE0FFF1F8E0F9F1FFC013C
:1004A000E05FFE4F81819281820F931F90938900BC
:1004B0008093880080910301082E000C990BFC01A9
:1004C000EE0FFF1F8E0F9F1FFC01E05FFE4F80812C
:1004D00086FF12C080910301082E000C990BFC01CD
:1004E000EE0FFF1F8E0F9F1FFC01E05FFE4F80810C
:1004F00061E08F730E941701FF91EF91BF91AF915F
:100500009F918F917F916F915F914F913F912F912B
:100510000F900FBE0F901F901895789484B582604D
:1005200084BD84B5816084BD85B5826085BD85B597
:10053000816085BD80916E00816080936E00109215
:100540008100809181008260809381008091810090
:100550008160809381008091800081608093800021
:100560008091B10084608093B1008091B00081607F
:100570008093B00080917A00846080937A008091AB
:100580007A00826080937A0080917A008160809303
:100590007A0080917A00806880937A001092C1007E
:1005A00080910D018C3008F051C061E08AE00E941A
:1005B000460180910D01E82FF0E09F01220F331FCB
:1005C000E20FF31FE05FFE4F9081907C9A60908372
:1005D00010920E0110920F016CE00E947D039CE0CE
:1005E000899FB001112440E050E09B01240F351F8A
:1005F000F901EE0FFF1F2E0F3F1FF901E05FFE4FC5
:10060000908196FD16C04F5F5F4F4C30510569F7E2
:1006100081110FC01092800082E0809381001092BF
:10062000850010928400B19A80916F00826080935F
:100630006F00E0910D01F0E0CF01880F991FE80FE6
:10064000F91FE05FFE4F80818064808360E088E076
:100650000E94460160E089E00E944601C0E0D0E0CF
:1006600088E00E94EE00892B31F089E00E94EE00C4
:10067000892B11F511C080910001909101014696DE
:1006800090930101809300010E948C0088E00E94F9
:10069000EE00892BD9F3E9CF8091000190910101FF
:1006A000469790930101809300010E948C0089E09D
:1006B0000E94EE00892BD9F3209791F20E9400004E
:1006C000CFCF809102018C30A0F491E0980F9093ED
:1006D000020180930D0190E0FC01EE0FFF1F8E0FD1
:1006E0009F1FFC01E05FFE4F88EB9BE092838183BC
:1006F00008958FEF80930D010895991B79E004C050
:10070000991F961708F0961B881F7A95C9F7809550
:100710000895EE0FFF1F0590F491E02D0994F894D1
:02072000FFCF09
:02072200DC05F4
:00000001FF
