:100000000C9462000C948A000C948A000C948A0070
:100010000C948A000C948A000C948A000C948A0038
:100020000C948A000C948A000C948A000C948A0028
:100030000C948A000C948A000C948A000C948A0018
:100040000C9448030C948A000C94B8030C9492030B
:100050000C948A000C948A000C948A000C948A00F8
:100060000C948A000C948A000000000024002700F1
:100070002A0000000000250028002B0000000000DE
:1000800023002600290004040404040404040202DA
:100090000202020203030303030301020408102007
:1000A0004080010204081020010204081020000012
:1000B0000008000201000003040700000000000027
:1000C00000008D0511241FBECFEFD8E0DEBFCDBFED
:1000D00011E0A0E0B1E0E2EDFBE002C005900D927E
:1000E000A034B107D9F721E0A0E4B1E001C01D922E
:1000F000AA3EB207E1F710E0C2E6D0E004C02197C3
:10010000FE010E94DC05C136D107C9F70E94EA034F
:100110000C94E7050C940000833081F028F48130C2
:1001200099F08230A1F008958730A9F08830B9F0B5
:100130008430D1F4809180008F7D03C08091800055
:100140008F7780938000089584B58F7702C084B53F
:100150008F7D84BD08958091B0008F7703C080911A
:10016000B0008F7D8093B0000895CF93DF93282F48
:1001700030E0F901E255FF4F8491F901E656FF4F57
:10018000D491F901EA57FF4FC491CC2391F081112A
:100190000E948C00EC2FF0E0EE0FFF1FE458FF4FA1
:1001A000A591B491EC91ED2381E090E021F480E001
:1001B00002C080E090E0DF91CF9108951F93CF932C
:1001C000DF93282F30E0F901E255FF4F8491F901C8
:1001D000E656FF4FD491F901EA57FF4FC491CC2363
:1001E000C1F0162F81110E948C00EC2FF0E0EE0F71
:1001F000FF1FEE58FF4FA591B4919FB7F8941111CE
:1002000004C08C91D095D82302C0EC91DE2BDC93F6
:100210009FBFDF91CF911F910895CF93DF9390E01F
:10022000FC01E656FF4F2491FC01EA57FF4F8491F1
:10023000882361F190E0880F991FFC01E859FF4F76
:10024000C591D491FC01EE58FF4FA591B491611175
:1002500009C09FB7F8948881209582238883EC9108
:100260002E230BC0623061F49FB7F8948881322F3F
:10027000309583238883EC912E2B2C939FBF06C04F
:100280008FB7F894E8812E2B28838FBFDF91CF9111
:1002900008951F93CF93DF93182FEB0161E00E9425
:1002A0000D01209711F460E004C0CF3FD10539F46F
:1002B00061E0812FDF91CF911F910C94DE00E12F3F
:1002C000F0E0E255FF4FE491E330F9F048F4E1301B
:1002D000B9F0E230A1F584B5806284BDC8BD34C0F8
:1002E000E730E9F0E83019F1E43049F58091800019
:1002F000806280938000D0938B00C0938A0024C0DA
:1003000084B5806884BDC7BD1FC0809180008068AF
:1003100080938000D0938900C093880015C080919D
:10032000B00080688093B000C093B3000DC080918E
:10033000B00080628093B000C093B40005C0C038A4
:10034000D1050CF0B5CFAFCFDF91CF911F910895BC
:10035000CF92DF92EF92FF920F931F93CF93DF9391
:100360006C017A018B01C0E0D0E0CE15DF0581F091
:10037000D8016D918D01D601ED91FC910190F08134
:10038000E02DC6010995892B11F02196EECF7E0153
:10039000C701DF91CF911F910F91FF90EF90DF90F8
:1003A000CF900895089580E090E00895FC01538D6A
:1003B000448D252F30E0842F90E0821B930B54173F
:1003C00010F0CF96089501970895FC01918D828DCC
:1003D000981761F0828DDF01A80FB11D5D968C9199
:1003E000928D9F5F9F73928F90E008958FEF9FEFA4
:1003F0000895FC01918D828D981731F0828DE80F60
:10040000F11D858D90E008958FEF9FEF0895FC0119
:10041000918D228D892F90E0805C9F4F821B9109E6
:100420008F73992708958DE491E00E94070221E0DF
:10043000892B09F420E0822F0895FC01848DDF01CF
:10044000A80FB11DA35ABF4F2C91848D90E0019647
:100450008F739927848FA689B7892C93A089B18936
:100460008C91837080648C93938D848D981306C0D7
:100470000288F389E02D80818F7D80830895EF923B
:10048000FF920F931F93CF93DF93EC0181E0888F4E
:100490009B8D8C8D981305C0E889F989808185FD35
:1004A00026C0F62E0B8D10E00F5F1F4F0F73112724
:1004B000E02E8C8DE8120CC00FB607FCFACFE8894D
:1004C000F989808185FFF5CFCE010E941D02F1CF11
:1004D0008B8DFE01E80FF11DE35AFF4FF0829FB7AD
:1004E000F8940B8FEA89FB89808180620AC09FB7EC
:1004F000F894EE89FF896083E889F98980818370A7
:10050000806480839FBF81E090E0DF91CF911F9155
:100510000F91FF90EF900895CF93DF93EC01888DBA
:100520008823C9F0EA89FB89808185FD05C0A889F7
:10053000B9898C9186FD0FC00FB607FCF5CF80817D
:1005400085FFF2CFA889B9898C9185FFEDCFCE01C7
:100550000E941D02E7CFDF91CF91089580E090E0E7
:10056000892B29F00E94130281110C940000089538
:10057000009769F0FC0101900020E9F73197AF0185
:10058000481B590BBC018DE491E00C94A80180E05C
:1005900090E008958F929F92AF92BF92CF92DF9298
:1005A000EF92FF920F931F93CF93DF93CDB7DEB7F8
:1005B000A1970FB6F894DEBF0FBECDBF6C01990FA7
:1005C000EE08FF08F7FE2BC06DE28DE491E00E947B
:1005D0003F028C0122273327A9012C193D094E091E
:1005E0005F0919A2CE0181967C019AE0892E912C97
:1005F000A12CB12CCA01B901A50194010E94BA0530
:10060000605DF70162937F012115310541055105B8
:1006100089F7CF010E94B802080F191F1EC0A70159
:10062000960119A28E010F5D1F4F8AE0C82ED12CB2
:10063000E12CF12CCA01B901A70196010E94BA056B
:10064000605DF80162938F01211531054105510567
:1006500089F7CF010E94B8028C0180E291E00E94EC
:10066000B802800F911FA1960FB6F894DEBF0FBE9F
:10067000CDBFDF91CF911F910F91FF90EF90DF9051
:10068000CF90BF90AF909F908F9008950E94E20509
:100690001F920F920FB60F9211242F933F938F93B7
:1006A0009F93AF93BF938091490190914A01A0918C
:1006B0004B01B0914C013091480123E0230F2D37BD
:1006C00020F40196A11DB11D05C026E8230F029656
:1006D000A11DB11D209348018093490190934A01C7
:1006E000A0934B01B0934C0180914401909145013E
:1006F000A0914601B09147010196A11DB11D8093C3
:10070000440190934501A0934601B0934701BF91E6
:10071000AF919F918F913F912F910F900FBE0F90AE
:100720001F9018951F920F920FB60F9211242F93BE
:100730003F934F935F936F937F938F939F93AF9369
:10074000BF93EF93FF938DE491E00E941D02FF9110
:10075000EF91BF91AF919F918F917F916F915F9139
:100760004F913F912F910F900FBE0F901F901895B2
:100770001F920F920FB60F9211242F938F939F9376
:10078000EF93FF93E0915D01F0915E018081E09134
:100790006301F091640182FD12C090818091660135
:1007A0008F5F8F7320916701821751F0E09166018E
:1007B000F0E0E35BFE4F958F8093660101C080817E
:1007C000FF91EF919F918F912F910F900FBE0F90FE
:1007D0001F901895789484B5826084BD84B581603B
:1007E00084BD85B5826085BD85B5816085BD8091FC
:1007F0006E00816080936E00109281008091810074
:10080000826080938100809181008160809381006B
:10081000809180008160809380008091B10084602D
:100820008093B1008091B00081608093B00080918E
:100830007A00846080937A0080917A00826080934D
:100840007A0080917A00816080937A0080917A00AA
:10085000806880937A001092C10061E08AE00E9473
:100860000D0161E083E00E940D0160E089E00E94DB
:100870000D0160E088E00E940D0160E087E00E94C9
:100880000D0160E086E00E940D018FEF90E09093F3
:100890000301809302016FEF70E08AE00E9449013A
:1008A00060E070E083E00E944901E0915D01F09119
:1008B0005E0182E08083E0915901F0915A0110823B
:1008C000E0915B01F0915C018FEC808310926501F7
:1008D000E0916101F091620186E08083E0915F0127
:1008E000F0916001808180618083E0915F01F091EF
:1008F0006001808188608083E0915F01F0916001F8
:10090000808180688083E0915F01F0916001808147
:100910008F7D808383E291E00E94B80280E291E0C3
:100920000E94B802C1E0D0E00FEF10E089E00E9421
:10093000B5004C0190930D0180930C0188E00E945A
:10094000B5005C0190930B0180930A0187E00E943F
:10095000B5006C01909309018093080186E00E9424
:10096000B5007C019093070180930601892829F541
:1009700080910C0190910D01892B41F489E00E9436
:10098000B50090930D0180930C01F2CF809104018A
:10099000909105019E01281B390BC9013093050177
:1009A00020930401892B29F0109303010093020185
:1009B00004C01092030110920201AB2891F48091BF
:1009C0000A0190910B01892B41F488E00E94B50047
:1009D00090930B0180930A01F2CFD0934301C0930F
:1009E0004201CD2891F48091080190910901892B51
:1009F00041F487E00E94B5009093090180930801BB
:100A0000F2CFD0934101C0934001EF2809F58091C6
:100A1000060190910701892B41F486E00E94B50000
:100A20009093070180930601F2CF8091000190918D
:100A300001019E01281B390B309301012093000115
:100A40008CE291E00E94B80280E291E00E94B8023C
:100A50008091040190910501892BA9F12091420117
:100A6000309143018091020190910301232B71F099
:100A700010924301109242010A968F3F910599F01E
:100A800094F0109303010093020116C020914001DD
:100A900030914101232BD9F0109241011092400175
:100AA0000A9797FD05C0909303018093020104C04B
:100AB00010920301109202018091020190910301B2
:100AC0000E94CA0204C010920301109202016091B8
:100AD0000201709103016115710579F08BE00E94AC
:100AE0004901E0900001F09001016E2D8AE00E9422
:100AF000DE0061E0EF2859F009C060E070E08BE0B3
:100B00000E94490160E08AE00E94DE0060E083E02C
:100B10000E94DE000E94AE0209CFEDE4F1E01382F4
:100B2000128288EE93E0A0E0B0E084839583A683F0
:100B3000B78382E191E09183808385EC90E0958793
:100B4000848784EC90E09787868780EC90E0918B97
:100B5000808B81EC90E0938B828B82EC90E0958B84
:100B6000848B86EC90E0978B868B118E128E138E81
:100B7000148E0895A1E21A2EAA1BBB1BFD010DC005
:100B8000AA1FBB1FEE1FFF1FA217B307E407F5073D
:100B900020F0A21BB30BE40BF50B661F771F881F19
:100BA000991F1A9469F760957095809590959B01AF
:100BB000AC01BD01CF010895EE0FFF1F0590F49128
:100BC000E02D099481E090E0F8940C94E705F89406
:020BD000FFCF55
:100BD2000100FF000100010001000100010000000E
:100BE20000003F02A801D6018C020702E501F901CB
:100BF2000D0A004443204D6F746F72006469726580
:100C02006374696F6E206368616E676564210000BA
:107E0000112484B714BE81FFF0D085E080938100F7
:107E100082E08093C00088E18093C10086E0809377
:107E2000C20080E18093C4008EE0C9D0259A86E02C
:107E300020E33CEF91E0309385002093840096BBD3
:107E4000B09BFECF1D9AA8958150A9F7CC24DD24C4
:107E500088248394B5E0AB2EA1E19A2EF3E0BF2EE7
:107E6000A2D0813461F49FD0082FAFD0023811F036
:107E7000013811F484E001C083E08DD089C08234E0
:107E800011F484E103C0853419F485E0A6D080C0E4
:107E9000853579F488D0E82EFF2485D0082F10E0AE
:107EA000102F00270E291F29000F111F8ED06801E7
:107EB0006FC0863521F484E090D080E0DECF843638
:107EC00009F040C070D06FD0082F6DD080E0C81688
:107ED00080E7D80618F4F601B7BEE895C0E0D1E017
:107EE00062D089930C17E1F7F0E0CF16F0E7DF06D8
:107EF00018F0F601B7BEE89568D007B600FCFDCFD4
:107F0000A601A0E0B1E02C9130E011968C91119780
:107F100090E0982F8827822B932B1296FA010C0160
:107F200087BEE89511244E5F5F4FF1E0A038BF0790
:107F300051F7F601A7BEE89507B600FCFDCF97BE46
:107F4000E89526C08437B1F42ED02DD0F82E2BD052
:107F50003CD0F601EF2C8F010F5F1F4F84911BD097
:107F6000EA94F801C1F70894C11CD11CFA94CF0C13
:107F7000D11C0EC0853739F428D08EE10CD085E9AC
:107F80000AD08FE07ACF813511F488E018D01DD067
:107F900080E101D065CF982F8091C00085FFFCCF94
:107FA0009093C60008958091C00087FFFCCF809118
:107FB000C00084FD01C0A8958091C6000895E0E648
:107FC000F0E098E1908380830895EDDF803219F02E
:107FD00088E0F5DFFFCF84E1DECF1F93182FE3DFCA
:107FE0001150E9F7F2DF1F91089580E0E8DFEE27F6
:047FF000FF270994CA
:027FFE00040479
:0400000300007E007B
:00000001FF
