:100000000C946C000C9494000C9494000C94940048
:100010000C9494000C9494000C9494000C94940010
:100020000C9494000C9494000C9494000C94940000
:100030000C9494000C9494000C9494000C949400F0
:100040000C9410030C9494000C9494000C94940061
:100050000C9494000C9494000C9494000C949400D0
:100060000C9494000C94940097019E01AA01BB018A
:10007000BD01C401D001E101F701F9010000000058
:10008000240027002A0000000000250028002B0083
:1000900000000000230026002900040404040404D6
:1000A0000404020202020202030303030303010227
:1000B00004081020408001020408102001020408F6
:1000C00010200000000800020100000304070000E7
:1000D000000000000000440411241FBECFEFD8E050
:1000E000DEBFCDBF11E0A0E0B1E0E0EEF9E002C07C
:1000F00005900D92A830B107D9F721E0A8E0B1E052
:1001000001C01D92AB32B207E1F710E0CCE6D0E0BF
:1001100004C02197FE010E94B204CB36D107C9F773
:100120000E945A030C94EE040C940000833081F07A
:1001300028F4813099F08230A1F008958730A9F039
:100140008830B9F08430D1F4809180008F7D03C075
:10015000809180008F7780938000089584B58F7799
:1001600002C084B58F7D84BD08958091B0008F77E3
:1001700003C08091B0008F7D8093B0000895CF932D
:10018000DF93282F30E0F901EE53FF4F8491F901FE
:10019000E255FF4FD491F901E656FF4FC491CC23AD
:1001A00091F081110E949600EC2FF0E0EE0FFF1FFE
:1001B000E057FF4FA591B491EC91ED2381E090E0E1
:1001C00021F480E002C080E090E0DF91CF910895BB
:1001D0001F93CF93DF93282F30E0F901EE53FF4FA9
:1001E0008491F901E255FF4FD491F901E656FF4F92
:1001F000C491CC23C1F0162F81110E949600EC2FE0
:10020000F0E0EE0FFF1FEA57FF4FA591B4919FB7A3
:10021000F894111104C08C91D095D82302C0EC91B0
:10022000DE2BDC939FBFDF91CF911F910895CF9379
:10023000DF93EC018091190190911A01029709F561
:10024000C130D10569F024F42097D9F460E009C0E9
:10025000C230D10561F0C330D10599F460E008C027
:1002600061E080911D010E94E80061E006C061E04C
:1002700080911D010E94E80060E080911F010E94B2
:10028000E8008091190190911A01049709F03FC08C
:10029000C130D105B9F04CF42097C9F561E08091E7
:1002A0001D010E94E80060E013C0C230D105D9F002
:1002B000C330D10561F561E080911D010E94E80025
:1002C00060E017C060E080911D010E94E80061E0DD
:1002D00080911F010E94E80061E0809121010E944D
:1002E000E80060E010C060E080911D010E94E8001D
:1002F00061E080911F010E94E80060E0809121018F
:100300000E94E80061E0809123010E94E800809152
:10031000190190911A01059709F086C0CA30D105DC
:1003200008F082C0FE01EC5CFF4F0C94B20460E068
:1003300080911D010E94E80061E061C060E0809151
:100340001D010E94E80061E080911F010E94E80009
:1003500060E05AC060E080911D010E94E80061E009
:1003600080911F010E94E80060E0809121010E94BD
:10037000E80061E04EC060E001C061E080911D01D5
:100380000E94E80061E006C061E080911D010E94CA
:10039000E80060E080911F010E94E80060E00BC06F
:1003A00061E080911D010E94E80060E080911F01E2
:1003B0000E94E80061E0809121010E94E80061E074
:1003C00010C061E080911D010E94E80060E0809112
:1003D0001F010E94E80061E0809121010E94E80075
:1003E00060E0809123010E94E80060E017C061E0B6
:1003F00001C060E080911D010E94E80060E08091F2
:100400001F010E94E80061E0809121010E94E80044
:1004100060E0809123010E94E80061E08091250165
:10042000DF91CF910C94E800DF91CF9108958F92E6
:100430009F92AF92BF92EF92FF920F931F93CF9331
:10044000DF93EC0197FF04C0CC27DD27C81BD90B35
:10045000181619063CF481E090E090931201809305
:10046000110106C0892B21F0109212011092110186
:1004700004E010E05AE0E52EF12C209709F489C041
:100480003FB7F89480910D0190910E01A0910F015A
:10049000B091100126B5A89B05C02F3F19F0019619
:1004A000A11DB11D3FBFBA2FA92F982F8827820FFA
:1004B000911DA11DB11D42E0880F991FAA1FBB1FEE
:1004C0004A95D1F740912701509128016091290167
:1004D00070912A014C015D01841A950AA60AB70A97
:1004E0004091130150911401609115017091160112
:1004F00084169506A606B70608F4BFCF8093270199
:1005000090932801A0932901B0932A012091110111
:100510003091120180911B0190911C012130310515
:1005200089F4019690931C0180931B01209117017F
:100530003091180182179307C1F410921C01109298
:100540001B0113C0892B41F4809117019091180170
:1005500090931C0180931B0180911B0190911C01C1
:10056000019790931C0180931B0121972091190101
:1005700030911A0180911B0190911C0125303105A9
:1005800011F4B70101C0B8010E947F040E94170155
:1005900074CFDF91CF911F910F91FF90EF90BF909B
:1005A000AF909F908F900895CF93DF9390E0FC01E0
:1005B000E255FF4F2491FC01E656FF4F84918823BA
:1005C00061F190E0880F991FFC01E458FF4FC5913D
:1005D000D491FC01EA57FF4FA591B491611109C074
:1005E0009FB7F8948881209582238883EC912E23ED
:1005F0000BC0623061F49FB7F8948881322F309538
:1006000083238883EC912E2B2C939FBF06C08FB73A
:10061000F894E8812E2B28838FBFDF91CF91089526
:100620001F920F920FB60F9211242F933F938F9327
:100630009F93AF93BF938091090190910A01A0917C
:100640000B01B0910C013091080123E0230F2D37ED
:1006500020F40196A11DB11D05C026E8230F0296C6
:10066000A11DB11D209308018093090190930A01F7
:10067000A0930B01B0930C0180910D0190910E019C
:10068000A0910F01B09110010196A11DB11D8093A1
:100690000D0190930E01A0930F01B0931001BF9133
:1006A000AF919F918F913F912F910F900FBE0F901F
:1006B0001F901895789484B5826084BD84B581605C
:1006C00084BD85B5826085BD85B5816085BD80911D
:1006D0006E00816080936E00109281008091810095
:1006E000826080938100809181008160809381008D
:1006F000809180008160809380008091B10084604F
:100700008093B1008091B00081608093B0008091AF
:100710007A00846080937A0080917A00826080936E
:100720007A0080917A00816080937A0080917A00CB
:10073000806880937A001092C10020911701309157
:100740001801032E000C440B550B60E077E883E999
:1007500093E00E949304CA01B90126E030E040E032
:1007600050E00E94930420931301309314014093AE
:1007700015015093160160E088E00E94D40260E009
:1007800089E00E94D40260E08AE00E94D40280E006
:10079000E82E80E0F82ECC24C394D12C88E00E946F
:1007A000BF005C01909307018093060189E00E94DD
:1007B000BF008C0190930501809304018AE00E94A0
:1007C000BF00EC019093030180930201AB2891F4E8
:1007D0008091060190910701892B41F488E00E94E5
:1007E000BF009093070180930601F2CFD0920101E0
:1007F000C0920001012BC9F4809104019091050180
:10080000892B41F489E00E94BF00909305018093F9
:100810000401F2CF8FEF9FEF9093010180930001CD
:10082000CD2B29F08FEF9FEF26C0CD2B91F4809137
:10083000020190910301892B41F48AE00E94BF00DC
:100840009093030180930201F2CF10920101109264
:10085000000180910001909101018130910519F40E
:1008600081E090E008C08F3F2FEF9207D9F2892BEB
:1008700021F480E090E00E941702E114F10409F4F1
:100880008DCF0E9400008ACF0F931F93CF93DF93E9
:10089000C1E1D1E01B861A86198218821E8A1F8A3E
:1008A000188E198E84E290E09F838E8304E010E01E
:1008B0001D870C8785E090E09F878E8786E090E01B
:1008C000998B888B87E090E09B8B8A8B61E084E03A
:1008D0000E94D40261E08E850E94D40261E0888982
:1008E0000E94D40261E08A890E94D4021D8A1C8A77
:1008F00019870887DF91CF911F910F91089597FB7A
:10090000072E16F4009407D077FD09D00E94B80492
:1009100007FC05D03EF4909581959F4F0895709502
:1009200061957F4F0895052E97FB1EF400940E9459
:10093000AA0457FD07D00E94CC0407FC03D04EF454
:100940000C94AA0450954095309521953F4F4F4FF8
:100950005F4F089590958095709561957F4F8F4F6B
:100960009F4F0895EE0FFF1F0590F491E02D09941D
:10097000AA1BBB1B51E107C0AA1FBB1FA617B707C5
:1009800010F0A61BB70B881F991F5A95A9F78095E1
:100990009095BC01CD010895A1E21A2EAA1BBB1BA4
:1009A000FD010DC0AA1FBB1FEE1FFF1FA217B3073B
:1009B000E407F50720F0A21BB30BE40BF50B661F51
:1009C000771F881F991F1A9469F760957095809515
:1009D00090959B01AC01BD01CF010895F894FFCF24
:0809E00001000100010001000B
:00000001FF
